{
  "_format": "hh-sol-artifact-1",
  "contractName": "BlockBlog",
  "sourceName": "contracts/BlockBlog.sol",
  "abi": [
    {
      "inputs": [],
      "stateMutability": "nonpayable",
      "type": "constructor"
    },
    {
      "anonymous": false,
      "inputs": [
        {
          "indexed": false,
          "internalType": "uint256",
          "name": "id",
          "type": "uint256"
        },
        {
          "indexed": true,
          "internalType": "address",
          "name": "owner",
          "type": "address"
        },
        {
          "indexed": false,
          "internalType": "string",
          "name": "uri",
          "type": "string"
        }
      ],
      "name": "CreateBlogPost",
      "type": "event"
    },
    {
      "anonymous": false,
      "inputs": [
        {
          "indexed": false,
          "internalType": "uint256",
          "name": "id",
          "type": "uint256"
        }
      ],
      "name": "DeletBlogPost",
      "type": "event"
    },
    {
      "anonymous": false,
      "inputs": [
        {
          "indexed": false,
          "internalType": "uint256",
          "name": "id",
          "type": "uint256"
        },
        {
          "indexed": true,
          "internalType": "address",
          "name": "owner",
          "type": "address"
        },
        {
          "indexed": false,
          "internalType": "string",
          "name": "uri",
          "type": "string"
        }
      ],
      "name": "EditBlogPost",
      "type": "event"
    },
    {
      "anonymous": false,
      "inputs": [
        {
          "indexed": false,
          "internalType": "uint256",
          "name": "id",
          "type": "uint256"
        },
        {
          "indexed": true,
          "internalType": "address",
          "name": "likeer",
          "type": "address"
        },
        {
          "indexed": false,
          "internalType": "bool",
          "name": "isLiked",
          "type": "bool"
        }
      ],
      "name": "LikeBlogPost",
      "type": "event"
    },
    {
      "anonymous": false,
      "inputs": [
        {
          "indexed": false,
          "internalType": "uint256",
          "name": "id",
          "type": "uint256"
        },
        {
          "indexed": true,
          "internalType": "address",
          "name": "owner",
          "type": "address"
        },
        {
          "indexed": false,
          "internalType": "bool",
          "name": "isActive",
          "type": "bool"
        }
      ],
      "name": "ListingStatusUpdated",
      "type": "event"
    },
    {
      "inputs": [
        {
          "internalType": "string",
          "name": "_postUri",
          "type": "string"
        }
      ],
      "name": "createBlogPost",
      "outputs": [
        {
          "internalType": "uint256",
          "name": "",
          "type": "uint256"
        }
      ],
      "stateMutability": "nonpayable",
      "type": "function"
    },
    {
      "inputs": [
        {
          "internalType": "uint256",
          "name": "_postId",
          "type": "uint256"
        }
      ],
      "name": "deleteBlogPost",
      "outputs": [],
      "stateMutability": "nonpayable",
      "type": "function"
    },
    {
      "inputs": [
        {
          "internalType": "uint256",
          "name": "_postId",
          "type": "uint256"
        },
        {
          "internalType": "string",
          "name": "_postUri",
          "type": "string"
        }
      ],
      "name": "editBlogPost",
      "outputs": [],
      "stateMutability": "nonpayable",
      "type": "function"
    },
    {
      "inputs": [],
      "name": "getAllActivePosts",
      "outputs": [
        {
          "components": [
            {
              "internalType": "uint256",
              "name": "postId",
              "type": "uint256"
            },
            {
              "internalType": "address",
              "name": "owner",
              "type": "address"
            },
            {
              "internalType": "string",
              "name": "post_uri",
              "type": "string"
            },
            {
              "internalType": "uint256",
              "name": "likes",
              "type": "uint256"
            },
            {
              "internalType": "uint256",
              "name": "createAt",
              "type": "uint256"
            },
            {
              "internalType": "bool",
              "name": "isActive",
              "type": "bool"
            }
          ],
          "internalType": "struct BlockBlog.BlogPost[]",
          "name": "",
          "type": "tuple[]"
        }
      ],
      "stateMutability": "view",
      "type": "function"
    },
    {
      "inputs": [
        {
          "internalType": "uint256",
          "name": "_postId",
          "type": "uint256"
        }
      ],
      "name": "getBlogPost",
      "outputs": [
        {
          "internalType": "uint256",
          "name": "",
          "type": "uint256"
        },
        {
          "internalType": "address",
          "name": "",
          "type": "address"
        },
        {
          "internalType": "uint256",
          "name": "",
          "type": "uint256"
        },
        {
          "internalType": "uint256",
          "name": "",
          "type": "uint256"
        },
        {
          "internalType": "string",
          "name": "",
          "type": "string"
        }
      ],
      "stateMutability": "view",
      "type": "function"
    },
    {
      "inputs": [
        {
          "internalType": "address",
          "name": "_reader",
          "type": "address"
        }
      ],
      "name": "getReadingList",
      "outputs": [
        {
          "internalType": "uint256[]",
          "name": "",
          "type": "uint256[]"
        }
      ],
      "stateMutability": "view",
      "type": "function"
    },
    {
      "inputs": [
        {
          "internalType": "address",
          "name": "_userAddress",
          "type": "address"
        }
      ],
      "name": "getUserPostList",
      "outputs": [
        {
          "internalType": "uint256[]",
          "name": "",
          "type": "uint256[]"
        }
      ],
      "stateMutability": "view",
      "type": "function"
    },
    {
      "inputs": [
        {
          "internalType": "address",
          "name": "userAddress",
          "type": "address"
        }
      ],
      "name": "getUserProfileUri",
      "outputs": [
        {
          "internalType": "string",
          "name": "",
          "type": "string"
        }
      ],
      "stateMutability": "view",
      "type": "function"
    },
    {
      "inputs": [
        {
          "internalType": "uint256",
          "name": "",
          "type": "uint256"
        }
      ],
      "name": "idToBlogPosts",
      "outputs": [
        {
          "internalType": "uint256",
          "name": "postId",
          "type": "uint256"
        },
        {
          "internalType": "address",
          "name": "owner",
          "type": "address"
        },
        {
          "internalType": "string",
          "name": "post_uri",
          "type": "string"
        },
        {
          "internalType": "uint256",
          "name": "likes",
          "type": "uint256"
        },
        {
          "internalType": "uint256",
          "name": "createAt",
          "type": "uint256"
        },
        {
          "internalType": "bool",
          "name": "isActive",
          "type": "bool"
        }
      ],
      "stateMutability": "view",
      "type": "function"
    },
    {
      "inputs": [
        {
          "internalType": "address",
          "name": "",
          "type": "address"
        },
        {
          "internalType": "uint256",
          "name": "",
          "type": "uint256"
        }
      ],
      "name": "isFavorite",
      "outputs": [
        {
          "internalType": "bool",
          "name": "",
          "type": "bool"
        }
      ],
      "stateMutability": "view",
      "type": "function"
    },
    {
      "inputs": [
        {
          "internalType": "uint256",
          "name": "_postId",
          "type": "uint256"
        }
      ],
      "name": "likeBlogPost",
      "outputs": [],
      "stateMutability": "nonpayable",
      "type": "function"
    },
    {
      "inputs": [
        {
          "internalType": "address",
          "name": "",
          "type": "address"
        },
        {
          "internalType": "uint256",
          "name": "",
          "type": "uint256"
        }
      ],
      "name": "onReadingList",
      "outputs": [
        {
          "internalType": "bool",
          "name": "",
          "type": "bool"
        }
      ],
      "stateMutability": "view",
      "type": "function"
    },
    {
      "inputs": [
        {
          "internalType": "address payable",
          "name": "_to",
          "type": "address"
        }
      ],
      "name": "orderCoffee",
      "outputs": [],
      "stateMutability": "payable",
      "type": "function"
    },
    {
      "inputs": [
        {
          "internalType": "uint256",
          "name": "_postId",
          "type": "uint256"
        }
      ],
      "name": "updateListingStatus",
      "outputs": [],
      "stateMutability": "nonpayable",
      "type": "function"
    },
    {
      "inputs": [
        {
          "internalType": "uint256",
          "name": "_postId",
          "type": "uint256"
        }
      ],
      "name": "updateReadingList",
      "outputs": [],
      "stateMutability": "nonpayable",
      "type": "function"
    },
    {
      "inputs": [
        {
          "internalType": "string",
          "name": "uri",
          "type": "string"
        }
      ],
      "name": "userProfileUri",
      "outputs": [],
      "stateMutability": "nonpayable",
      "type": "function"
    }
  ],
  "bytecode": "0x608060405234801561001057600080fd5b50612822806100206000396000f3fe6080604052600436106100f35760003560e01c80635d2993491161008a578063e85cab5b11610059578063e85cab5b1461034f578063ef257a321461036b578063ef2cbfeb146103a8578063f2202158146103e5576100f3565b80635d299349146102a957806369eb4982146102d45780636d568a4c146102fd578063d1cdcac214610326576100f3565b806330283888116100c657806330283888146101dd5780634458f9441461021a57806346d8306414610243578063495609c114610280576100f3565b806305961853146100f857806311eacf5f146101355780631f5a81c2146101775780632899a3b4146101a0575b600080fd5b34801561010457600080fd5b5061011f600480360381019061011a91906119b1565b610426565b60405161012c9190611a17565b60405180910390f35b34801561014157600080fd5b5061015c60048036038101906101579190611a5e565b6105df565b60405161016e96959493929190611b77565b60405180910390f35b34801561018357600080fd5b5061019e60048036038101906101999190611d0f565b6106d0565b005b3480156101ac57600080fd5b506101c760048036038101906101c29190611d97565b61083b565b6040516101d49190611dd7565b60405180910390f35b3480156101e957600080fd5b5061020460048036038101906101ff9190611df2565b61086a565b6040516102119190611edd565b60405180910390f35b34801561022657600080fd5b50610241600480360381019061023c9190611a5e565b610a78565b005b34801561024f57600080fd5b5061026a60048036038101906102659190611df2565b610be1565b6040516102779190611edd565b60405180910390f35b34801561028c57600080fd5b506102a760048036038101906102a29190611eff565b610d97565b005b3480156102b557600080fd5b506102be610de6565b6040516102cb91906120fb565b60405180910390f35b3480156102e057600080fd5b506102fb60048036038101906102f69190611a5e565b611017565b005b34801561030957600080fd5b50610324600480360381019061031f9190611a5e565b6111cc565b005b34801561033257600080fd5b5061034d60048036038101906103489190611a5e565b611454565b005b6103696004803603810190610364919061215b565b611564565b005b34801561037757600080fd5b50610392600480360381019061038d9190611df2565b6115bb565b60405161039f9190612188565b60405180910390f35b3480156103b457600080fd5b506103cf60048036038101906103ca9190611d97565b61168b565b6040516103dc9190611dd7565b60405180910390f35b3480156103f157600080fd5b5061040c60048036038101906104079190611a5e565b6116ba565b60405161041d9594939291906121aa565b60405180910390f35b60006003600081548092919061043b90612233565b91905055506040518060c0016040528060035481526020013373ffffffffffffffffffffffffffffffffffffffff16815260200184848080601f016020809104026020016040519081016040528093929190818152602001838380828437600081840152601f19601f82011690508083019250505050505050815260200160008152602001428152602001600115158152506004600060035481526020019081526020016000206000820151816000015560208201518160010160006101000a81548173ffffffffffffffffffffffffffffffffffffffff021916908373ffffffffffffffffffffffffffffffffffffffff16021790555060408201518160020190816105489190612487565b50606082015181600301556080820151816004015560a08201518160050160006101000a81548160ff0219169083151502179055509050503373ffffffffffffffffffffffffffffffffffffffff167f07f0c4114fbb46ac1022ef02138312f126ea92b348e602862e78a008738137ac60035485856040516105cc93929190612586565b60405180910390a2600354905092915050565b60046020528060005260406000206000915090508060000154908060010160009054906101000a900473ffffffffffffffffffffffffffffffffffffffff169080600201805461062e906122aa565b80601f016020809104026020016040519081016040528092919081815260200182805461065a906122aa565b80156106a75780601f1061067c576101008083540402835291602001916106a7565b820191906000526020600020905b81548152906001019060200180831161068a57829003601f168201915b5050505050908060030154908060040154908060050160009054906101000a900460ff16905086565b81600354811115610716576040517f08c379a000000000000000000000000000000000000000000000000000000000815260040161070d90612604565b60405180910390fd5b823373ffffffffffffffffffffffffffffffffffffffff166004600083815260200190815260200160002060010160009054906101000a900473ffffffffffffffffffffffffffffffffffffffff1673ffffffffffffffffffffffffffffffffffffffff16146107bb576040517f08c379a00000000000000000000000000000000000000000000000000000000081526004016107b290612670565b60405180910390fd5b6000600460008681526020019081526020016000209050838160020190816107e39190612487565b503373ffffffffffffffffffffffffffffffffffffffff167fc1cb2bbcb2b72e53a3ce328208a6bc7343e7d84a462ac745ba6ce2cf83e32d5f868660405161082c929190612690565b60405180910390a25050505050565b60016020528160005260406000206020528060005260406000206000915091509054906101000a900460ff1681565b6060600080600190505b6003548111610935578373ffffffffffffffffffffffffffffffffffffffff166004600083815260200190815260200160002060010160009054906101000a900473ffffffffffffffffffffffffffffffffffffffff1673ffffffffffffffffffffffffffffffffffffffff1614801561090e57506004600082815260200190815260200160002060050160009054906101000a900460ff165b1561092257818061091e90612233565b9250505b808061092d90612233565b915050610874565b5060008167ffffffffffffffff81111561095257610951611be4565b5b6040519080825280602002602001820160405280156109805781602001602082028036833780820191505090505b509050600080600190505b6003548111610a6c578573ffffffffffffffffffffffffffffffffffffffff166004600083815260200190815260200160002060010160009054906101000a900473ffffffffffffffffffffffffffffffffffffffff1673ffffffffffffffffffffffffffffffffffffffff16148015610a2557506004600082815260200190815260200160002060050160009054906101000a900460ff165b15610a595780838381518110610a3e57610a3d6126c0565b5b6020026020010181815250508180610a5590612233565b9250505b8080610a6490612233565b91505061098b565b50819350505050919050565b80600354811115610abe576040517f08c379a0000000000000000000000000000000000000000000000000000000008152600401610ab590612604565b60405180910390fd5b813373ffffffffffffffffffffffffffffffffffffffff166004600083815260200190815260200160002060010160009054906101000a900473ffffffffffffffffffffffffffffffffffffffff1673ffffffffffffffffffffffffffffffffffffffff1614610b63576040517f08c379a0000000000000000000000000000000000000000000000000000000008152600401610b5a90612670565b60405180910390fd5b600460008481526020019081526020016000206000808201600090556001820160006101000a81549073ffffffffffffffffffffffffffffffffffffffff0219169055600282016000610bb6919061188d565b600382016000905560048201600090556005820160006101000a81549060ff02191690555050505050565b6060600080600190505b600354811015610c805760011515600160008673ffffffffffffffffffffffffffffffffffffffff1673ffffffffffffffffffffffffffffffffffffffff168152602001908152602001600020600083815260200190815260200160002060009054906101000a900460ff16151503610c6d578180610c6990612233565b9250505b8080610c7890612233565b915050610beb565b5060008167ffffffffffffffff811115610c9d57610c9c611be4565b5b604051908082528060200260200182016040528015610ccb5781602001602082028036833780820191505090505b509050600080600190505b600354811015610d8b5760011515600160008873ffffffffffffffffffffffffffffffffffffffff1673ffffffffffffffffffffffffffffffffffffffff168152602001908152602001600020600083815260200190815260200160002060009054906101000a900460ff16151503610d785780838381518110610d5d57610d5c6126c0565b5b6020026020010181815250508180610d7490612233565b9250505b8080610d8390612233565b915050610cd6565b50819350505050919050565b806000803373ffffffffffffffffffffffffffffffffffffffff1673ffffffffffffffffffffffffffffffffffffffff1681526020019081526020016000209081610de29190612487565b5050565b6060600060035467ffffffffffffffff811115610e0657610e05611be4565b5b604051908082528060200260200182016040528015610e3f57816020015b610e2c6118cd565b815260200190600190039081610e245790505b509050600080600190505b6001600354610e5991906126ef565b81101561100e57600115156004600083815260200190815260200160002060050160009054906101000a900460ff16151503610ffb57600460008281526020019081526020016000206040518060c0016040529081600082015481526020016001820160009054906101000a900473ffffffffffffffffffffffffffffffffffffffff1673ffffffffffffffffffffffffffffffffffffffff1673ffffffffffffffffffffffffffffffffffffffff168152602001600282018054610f1d906122aa565b80601f0160208091040260200160405190810160405280929190818152602001828054610f49906122aa565b8015610f965780601f10610f6b57610100808354040283529160200191610f96565b820191906000526020600020905b815481529060010190602001808311610f7957829003601f168201915b5050505050815260200160038201548152602001600482015481526020016005820160009054906101000a900460ff161515151581525050838381518110610fe157610fe06126c0565b5b60200260200101819052508180610ff790612233565b9250505b808061100690612233565b915050610e4a565b50819250505090565b8060035481111561105d576040517f08c379a000000000000000000000000000000000000000000000000000000000815260040161105490612604565b60405180910390fd5b813373ffffffffffffffffffffffffffffffffffffffff166004600083815260200190815260200160002060010160009054906101000a900473ffffffffffffffffffffffffffffffffffffffff1673ffffffffffffffffffffffffffffffffffffffff1614611102576040517f08c379a00000000000000000000000000000000000000000000000000000000081526004016110f990612670565b60405180910390fd5b6004600084815260200190815260200160002060050160009054906101000a900460ff16156004600085815260200190815260200160002060050160006101000a81548160ff0219169083151502179055503373ffffffffffffffffffffffffffffffffffffffff167f6f643d38c8d49f94862283169cb07a52670291545fd45ac036d7155ce8439238846004600087815260200190815260200160002060050160009054906101000a900460ff166040516111bf929190612723565b60405180910390a2505050565b80600354811115611212576040517f08c379a000000000000000000000000000000000000000000000000000000000815260040161120990612604565b60405180910390fd5b60011515600260003373ffffffffffffffffffffffffffffffffffffffff1673ffffffffffffffffffffffffffffffffffffffff168152602001908152602001600020600084815260200190815260200160002060009054906101000a900460ff161515036112ae5760016004600084815260200190815260200160002060030160008282546112a2919061274c565b925050819055506112dd565b60016004600084815260200190815260200160002060030160008282546112d591906126ef565b925050819055505b600260003373ffffffffffffffffffffffffffffffffffffffff1673ffffffffffffffffffffffffffffffffffffffff168152602001908152602001600020600083815260200190815260200160002060009054906101000a900460ff1615600260003373ffffffffffffffffffffffffffffffffffffffff1673ffffffffffffffffffffffffffffffffffffffff168152602001908152602001600020600084815260200190815260200160002060006101000a81548160ff0219169083151502179055503373ffffffffffffffffffffffffffffffffffffffff167fa541bbbd8ba5e5e4be4e6fbe05d75f1b560de1e25e28cd0eddbd067e2550466f83600260003373ffffffffffffffffffffffffffffffffffffffff1673ffffffffffffffffffffffffffffffffffffffff168152602001908152602001600020600086815260200190815260200160002060009054906101000a900460ff16604051611448929190612723565b60405180910390a25050565b8060035481111561149a576040517f08c379a000000000000000000000000000000000000000000000000000000000815260040161149190612604565b60405180910390fd5b600160003373ffffffffffffffffffffffffffffffffffffffff1673ffffffffffffffffffffffffffffffffffffffff168152602001908152602001600020600083815260200190815260200160002060009054906101000a900460ff1615600160003373ffffffffffffffffffffffffffffffffffffffff1673ffffffffffffffffffffffffffffffffffffffff168152602001908152602001600020600084815260200190815260200160002060006101000a81548160ff0219169083151502179055505050565b6000341161157157600080fd5b8073ffffffffffffffffffffffffffffffffffffffff166108fc349081150290604051600060405180830381858888f193505050501580156115b7573d6000803e3d6000fd5b5050565b60606000808373ffffffffffffffffffffffffffffffffffffffff1673ffffffffffffffffffffffffffffffffffffffff1681526020019081526020016000208054611606906122aa565b80601f0160208091040260200160405190810160405280929190818152602001828054611632906122aa565b801561167f5780601f106116545761010080835404028352916020019161167f565b820191906000526020600020905b81548152906001019060200180831161166257829003601f168201915b50505050509050919050565b60026020528160005260406000206020528060005260406000206000915091509054906101000a900460ff1681565b600080600080606085600060046000838152602001908152602001600020600001540361171c576040517f08c379a0000000000000000000000000000000000000000000000000000000008152600401611713906127cc565b60405180910390fd5b6000600460008981526020019081526020016000206040518060c0016040529081600082015481526020016001820160009054906101000a900473ffffffffffffffffffffffffffffffffffffffff1673ffffffffffffffffffffffffffffffffffffffff1673ffffffffffffffffffffffffffffffffffffffff1681526020016002820180546117ac906122aa565b80601f01602080910402602001604051908101604052809291908181526020018280546117d8906122aa565b80156118255780601f106117fa57610100808354040283529160200191611825565b820191906000526020600020905b81548152906001019060200180831161180857829003601f168201915b5050505050815260200160038201548152602001600482015481526020016005820160009054906101000a900460ff16151515158152505090508060000151816020015182608001518360600151846040015196509650965096509650505091939590929450565b508054611899906122aa565b6000825580601f106118ab57506118ca565b601f0160209004906000526020600020908101906118c9919061191b565b5b50565b6040518060c0016040528060008152602001600073ffffffffffffffffffffffffffffffffffffffff1681526020016060815260200160008152602001600081526020016000151581525090565b5b8082111561193457600081600090555060010161191c565b5090565b6000604051905090565b600080fd5b600080fd5b600080fd5b600080fd5b600080fd5b60008083601f8401126119715761197061194c565b5b8235905067ffffffffffffffff81111561198e5761198d611951565b5b6020830191508360018202830111156119aa576119a9611956565b5b9250929050565b600080602083850312156119c8576119c7611942565b5b600083013567ffffffffffffffff8111156119e6576119e5611947565b5b6119f28582860161195b565b92509250509250929050565b6000819050919050565b611a11816119fe565b82525050565b6000602082019050611a2c6000830184611a08565b92915050565b611a3b816119fe565b8114611a4657600080fd5b50565b600081359050611a5881611a32565b92915050565b600060208284031215611a7457611a73611942565b5b6000611a8284828501611a49565b91505092915050565b600073ffffffffffffffffffffffffffffffffffffffff82169050919050565b6000611ab682611a8b565b9050919050565b611ac681611aab565b82525050565b600081519050919050565b600082825260208201905092915050565b60005b83811015611b06578082015181840152602081019050611aeb565b60008484015250505050565b6000601f19601f8301169050919050565b6000611b2e82611acc565b611b388185611ad7565b9350611b48818560208601611ae8565b611b5181611b12565b840191505092915050565b60008115159050919050565b611b7181611b5c565b82525050565b600060c082019050611b8c6000830189611a08565b611b996020830188611abd565b8181036040830152611bab8187611b23565b9050611bba6060830186611a08565b611bc76080830185611a08565b611bd460a0830184611b68565b979650505050505050565b600080fd5b7f4e487b7100000000000000000000000000000000000000000000000000000000600052604160045260246000fd5b611c1c82611b12565b810181811067ffffffffffffffff82111715611c3b57611c3a611be4565b5b80604052505050565b6000611c4e611938565b9050611c5a8282611c13565b919050565b600067ffffffffffffffff821115611c7a57611c79611be4565b5b611c8382611b12565b9050602081019050919050565b82818337600083830152505050565b6000611cb2611cad84611c5f565b611c44565b905082815260208101848484011115611cce57611ccd611bdf565b5b611cd9848285611c90565b509392505050565b600082601f830112611cf657611cf561194c565b5b8135611d06848260208601611c9f565b91505092915050565b60008060408385031215611d2657611d25611942565b5b6000611d3485828601611a49565b925050602083013567ffffffffffffffff811115611d5557611d54611947565b5b611d6185828601611ce1565b9150509250929050565b611d7481611aab565b8114611d7f57600080fd5b50565b600081359050611d9181611d6b565b92915050565b60008060408385031215611dae57611dad611942565b5b6000611dbc85828601611d82565b9250506020611dcd85828601611a49565b9150509250929050565b6000602082019050611dec6000830184611b68565b92915050565b600060208284031215611e0857611e07611942565b5b6000611e1684828501611d82565b91505092915050565b600081519050919050565b600082825260208201905092915050565b6000819050602082019050919050565b611e54816119fe565b82525050565b6000611e668383611e4b565b60208301905092915050565b6000602082019050919050565b6000611e8a82611e1f565b611e948185611e2a565b9350611e9f83611e3b565b8060005b83811015611ed0578151611eb78882611e5a565b9750611ec283611e72565b925050600181019050611ea3565b5085935050505092915050565b60006020820190508181036000830152611ef78184611e7f565b905092915050565b600060208284031215611f1557611f14611942565b5b600082013567ffffffffffffffff811115611f3357611f32611947565b5b611f3f84828501611ce1565b91505092915050565b600081519050919050565b600082825260208201905092915050565b6000819050602082019050919050565b611f7d81611aab565b82525050565b600082825260208201905092915050565b6000611f9f82611acc565b611fa98185611f83565b9350611fb9818560208601611ae8565b611fc281611b12565b840191505092915050565b611fd681611b5c565b82525050565b600060c083016000830151611ff46000860182611e4b565b5060208301516120076020860182611f74565b506040830151848203604086015261201f8282611f94565b91505060608301516120346060860182611e4b565b5060808301516120476080860182611e4b565b5060a083015161205a60a0860182611fcd565b508091505092915050565b60006120718383611fdc565b905092915050565b6000602082019050919050565b600061209182611f48565b61209b8185611f53565b9350836020820285016120ad85611f64565b8060005b858110156120e957848403895281516120ca8582612065565b94506120d583612079565b925060208a019950506001810190506120b1565b50829750879550505050505092915050565b600060208201905081810360008301526121158184612086565b905092915050565b600061212882611a8b565b9050919050565b6121388161211d565b811461214357600080fd5b50565b6000813590506121558161212f565b92915050565b60006020828403121561217157612170611942565b5b600061217f84828501612146565b91505092915050565b600060208201905081810360008301526121a28184611b23565b905092915050565b600060a0820190506121bf6000830188611a08565b6121cc6020830187611abd565b6121d96040830186611a08565b6121e66060830185611a08565b81810360808301526121f88184611b23565b90509695505050505050565b7f4e487b7100000000000000000000000000000000000000000000000000000000600052601160045260246000fd5b600061223e826119fe565b91507fffffffffffffffffffffffffffffffffffffffffffffffffffffffffffffffff82036122705761226f612204565b5b600182019050919050565b7f4e487b7100000000000000000000000000000000000000000000000000000000600052602260045260246000fd5b600060028204905060018216806122c257607f821691505b6020821081036122d5576122d461227b565b5b50919050565b60008190508160005260206000209050919050565b60006020601f8301049050919050565b600082821b905092915050565b60006008830261233d7fffffffffffffffffffffffffffffffffffffffffffffffffffffffffffffffff82612300565b6123478683612300565b95508019841693508086168417925050509392505050565b6000819050919050565b600061238461237f61237a846119fe565b61235f565b6119fe565b9050919050565b6000819050919050565b61239e83612369565b6123b26123aa8261238b565b84845461230d565b825550505050565b600090565b6123c76123ba565b6123d2818484612395565b505050565b5b818110156123f6576123eb6000826123bf565b6001810190506123d8565b5050565b601f82111561243b5761240c816122db565b612415846122f0565b81016020851015612424578190505b612438612430856122f0565b8301826123d7565b50505b505050565b600082821c905092915050565b600061245e60001984600802612440565b1980831691505092915050565b6000612477838361244d565b9150826002028217905092915050565b61249082611acc565b67ffffffffffffffff8111156124a9576124a8611be4565b5b6124b382546122aa565b6124be8282856123fa565b600060209050601f8311600181146124f157600084156124df578287015190505b6124e9858261246b565b865550612551565b601f1984166124ff866122db565b60005b8281101561252757848901518255600182019150602085019450602081019050612502565b868310156125445784890151612540601f89168261244d565b8355505b6001600288020188555050505b505050505050565b60006125658385611ad7565b9350612572838584611c90565b61257b83611b12565b840190509392505050565b600060408201905061259b6000830186611a08565b81810360208301526125ae818486612559565b9050949350505050565b7f426c6f6720506f737420646f65736e2774206578697374000000000000000000600082015250565b60006125ee601783611ad7565b91506125f9826125b8565b602082019050919050565b6000602082019050818103600083015261261d816125e1565b9050919050565b7f596f7520646f206e6f74206f776e2074686520626c6f6720706f737400000000600082015250565b600061265a601c83611ad7565b915061266582612624565b602082019050919050565b600060208201905081810360008301526126898161264d565b9050919050565b60006040820190506126a56000830185611a08565b81810360208301526126b78184611b23565b90509392505050565b7f4e487b7100000000000000000000000000000000000000000000000000000000600052603260045260246000fd5b60006126fa826119fe565b9150612705836119fe565b925082820190508082111561271d5761271c612204565b5b92915050565b60006040820190506127386000830185611a08565b6127456020830184611b68565b9392505050565b6000612757826119fe565b9150612762836119fe565b925082820390508181111561277a57612779612204565b5b92915050565b7f5468697320626c6f6720706f737420686173206265656e2064656c657465642e600082015250565b60006127b6602083611ad7565b91506127c182612780565b602082019050919050565b600060208201905081810360008301526127e5816127a9565b905091905056fea26469706673582212201c217607d6fa24022f7fa37a680d2cd02c649ffffc8a18348d97c9f39c9b53f864736f6c63430008120033",
  "linkReferences": {},
  "deployedLinkReferences": {}
}