{
  "_format": "hh-sol-artifact-1",
  "contractName": "BlockBlog",
  "sourceName": "contracts/BlockBlog.sol",
  "abi": [
    {
      "inputs": [],
      "stateMutability": "nonpayable",
      "type": "constructor"
    },
    {
      "anonymous": false,
      "inputs": [
        {
          "indexed": false,
          "internalType": "uint256",
          "name": "id",
          "type": "uint256"
        },
        {
          "indexed": true,
          "internalType": "address",
          "name": "owner",
          "type": "address"
        },
        {
          "indexed": false,
          "internalType": "string",
          "name": "uri",
          "type": "string"
        }
      ],
      "name": "CreateBlogPost",
      "type": "event"
    },
    {
      "anonymous": false,
      "inputs": [
        {
          "indexed": false,
          "internalType": "uint256",
          "name": "id",
          "type": "uint256"
        }
      ],
      "name": "DeletBlogPost",
      "type": "event"
    },
    {
      "anonymous": false,
      "inputs": [
        {
          "indexed": false,
          "internalType": "uint256",
          "name": "id",
          "type": "uint256"
        },
        {
          "indexed": true,
          "internalType": "address",
          "name": "owner",
          "type": "address"
        },
        {
          "indexed": false,
          "internalType": "string",
          "name": "uri",
          "type": "string"
        }
      ],
      "name": "EditBlogPost",
      "type": "event"
    },
    {
      "anonymous": false,
      "inputs": [
        {
          "indexed": false,
          "internalType": "uint256",
          "name": "id",
          "type": "uint256"
        },
        {
          "indexed": true,
          "internalType": "address",
          "name": "likeer",
          "type": "address"
        },
        {
          "indexed": false,
          "internalType": "bool",
          "name": "isLiked",
          "type": "bool"
        }
      ],
      "name": "LikeBlogPost",
      "type": "event"
    },
    {
      "anonymous": false,
      "inputs": [
        {
          "indexed": false,
          "internalType": "uint256",
          "name": "id",
          "type": "uint256"
        },
        {
          "indexed": true,
          "internalType": "address",
          "name": "owner",
          "type": "address"
        },
        {
          "indexed": false,
          "internalType": "bool",
          "name": "isActive",
          "type": "bool"
        }
      ],
      "name": "ListingStatusUpdated",
      "type": "event"
    },
    {
      "inputs": [
        {
          "internalType": "string",
          "name": "_postUri",
          "type": "string"
        }
      ],
      "name": "createBlogPost",
      "outputs": [
        {
          "internalType": "uint256",
          "name": "",
          "type": "uint256"
        }
      ],
      "stateMutability": "nonpayable",
      "type": "function"
    },
    {
      "inputs": [
        {
          "internalType": "uint256",
          "name": "_postId",
          "type": "uint256"
        }
      ],
      "name": "deleteBlogPost",
      "outputs": [],
      "stateMutability": "nonpayable",
      "type": "function"
    },
    {
      "inputs": [
        {
          "internalType": "uint256",
          "name": "_postId",
          "type": "uint256"
        },
        {
          "internalType": "string",
          "name": "_postUri",
          "type": "string"
        }
      ],
      "name": "editBlogPost",
      "outputs": [],
      "stateMutability": "nonpayable",
      "type": "function"
    },
    {
      "inputs": [],
      "name": "getAllActivePosts",
      "outputs": [
        {
          "components": [
            {
              "internalType": "uint256",
              "name": "postId",
              "type": "uint256"
            },
            {
              "internalType": "address",
              "name": "owner",
              "type": "address"
            },
            {
              "internalType": "string",
              "name": "post_uri",
              "type": "string"
            },
            {
              "internalType": "uint256",
              "name": "likes",
              "type": "uint256"
            },
            {
              "internalType": "uint256",
              "name": "createAt",
              "type": "uint256"
            },
            {
              "internalType": "bool",
              "name": "isActive",
              "type": "bool"
            }
          ],
          "internalType": "struct BlockBlog.BlogPost[]",
          "name": "",
          "type": "tuple[]"
        }
      ],
      "stateMutability": "view",
      "type": "function"
    },
    {
      "inputs": [],
      "name": "getAllPosts",
      "outputs": [
        {
          "components": [
            {
              "internalType": "uint256",
              "name": "postId",
              "type": "uint256"
            },
            {
              "internalType": "address",
              "name": "owner",
              "type": "address"
            },
            {
              "internalType": "string",
              "name": "post_uri",
              "type": "string"
            },
            {
              "internalType": "uint256",
              "name": "likes",
              "type": "uint256"
            },
            {
              "internalType": "uint256",
              "name": "createAt",
              "type": "uint256"
            },
            {
              "internalType": "bool",
              "name": "isActive",
              "type": "bool"
            }
          ],
          "internalType": "struct BlockBlog.BlogPost[]",
          "name": "",
          "type": "tuple[]"
        }
      ],
      "stateMutability": "view",
      "type": "function"
    },
    {
      "inputs": [
        {
          "internalType": "uint256",
          "name": "_postId",
          "type": "uint256"
        }
      ],
      "name": "getBlogPost",
      "outputs": [
        {
          "internalType": "uint256",
          "name": "",
          "type": "uint256"
        },
        {
          "internalType": "address",
          "name": "",
          "type": "address"
        },
        {
          "internalType": "uint256",
          "name": "",
          "type": "uint256"
        },
        {
          "internalType": "uint256",
          "name": "",
          "type": "uint256"
        },
        {
          "internalType": "string",
          "name": "",
          "type": "string"
        }
      ],
      "stateMutability": "view",
      "type": "function"
    },
    {
      "inputs": [
        {
          "internalType": "address",
          "name": "_reader",
          "type": "address"
        }
      ],
      "name": "getReadingList",
      "outputs": [
        {
          "internalType": "uint256[]",
          "name": "",
          "type": "uint256[]"
        }
      ],
      "stateMutability": "view",
      "type": "function"
    },
    {
      "inputs": [
        {
          "internalType": "address",
          "name": "_userAddress",
          "type": "address"
        }
      ],
      "name": "getUserPostList",
      "outputs": [
        {
          "internalType": "uint256[]",
          "name": "",
          "type": "uint256[]"
        }
      ],
      "stateMutability": "view",
      "type": "function"
    },
    {
      "inputs": [
        {
          "internalType": "address",
          "name": "userAddress",
          "type": "address"
        }
      ],
      "name": "getUserProfileUri",
      "outputs": [
        {
          "internalType": "string",
          "name": "",
          "type": "string"
        }
      ],
      "stateMutability": "view",
      "type": "function"
    },
    {
      "inputs": [
        {
          "internalType": "uint256",
          "name": "",
          "type": "uint256"
        }
      ],
      "name": "idToBlogPosts",
      "outputs": [
        {
          "internalType": "uint256",
          "name": "postId",
          "type": "uint256"
        },
        {
          "internalType": "address",
          "name": "owner",
          "type": "address"
        },
        {
          "internalType": "string",
          "name": "post_uri",
          "type": "string"
        },
        {
          "internalType": "uint256",
          "name": "likes",
          "type": "uint256"
        },
        {
          "internalType": "uint256",
          "name": "createAt",
          "type": "uint256"
        },
        {
          "internalType": "bool",
          "name": "isActive",
          "type": "bool"
        }
      ],
      "stateMutability": "view",
      "type": "function"
    },
    {
      "inputs": [
        {
          "internalType": "address",
          "name": "",
          "type": "address"
        },
        {
          "internalType": "uint256",
          "name": "",
          "type": "uint256"
        }
      ],
      "name": "isFavorite",
      "outputs": [
        {
          "internalType": "bool",
          "name": "",
          "type": "bool"
        }
      ],
      "stateMutability": "view",
      "type": "function"
    },
    {
      "inputs": [
        {
          "internalType": "uint256",
          "name": "_postId",
          "type": "uint256"
        }
      ],
      "name": "likeBlogPost",
      "outputs": [],
      "stateMutability": "nonpayable",
      "type": "function"
    },
    {
      "inputs": [
        {
          "internalType": "address",
          "name": "",
          "type": "address"
        },
        {
          "internalType": "uint256",
          "name": "",
          "type": "uint256"
        }
      ],
      "name": "onReadingList",
      "outputs": [
        {
          "internalType": "bool",
          "name": "",
          "type": "bool"
        }
      ],
      "stateMutability": "view",
      "type": "function"
    },
    {
      "inputs": [
        {
          "internalType": "address payable",
          "name": "_to",
          "type": "address"
        }
      ],
      "name": "orderCoffee",
      "outputs": [],
      "stateMutability": "payable",
      "type": "function"
    },
    {
      "inputs": [
        {
          "internalType": "uint256",
          "name": "_postId",
          "type": "uint256"
        }
      ],
      "name": "updateListingStatus",
      "outputs": [],
      "stateMutability": "nonpayable",
      "type": "function"
    },
    {
      "inputs": [
        {
          "internalType": "uint256",
          "name": "_postId",
          "type": "uint256"
        }
      ],
      "name": "updateReadingList",
      "outputs": [],
      "stateMutability": "nonpayable",
      "type": "function"
    },
    {
      "inputs": [
        {
          "internalType": "string",
          "name": "uri",
          "type": "string"
        }
      ],
      "name": "userProfileUri",
      "outputs": [],
      "stateMutability": "nonpayable",
      "type": "function"
    }
  ],
  "bytecode": "0x608060405234801561001057600080fd5b50612a59806100206000396000f3fe6080604052600436106100fe5760003560e01c8063495609c111610095578063d1cdcac211610064578063d1cdcac21461035c578063e85cab5b14610385578063ef257a32146103a1578063ef2cbfeb146103de578063f22021581461041b576100fe565b8063495609c1146102b65780635d299349146102df57806369eb49821461030a5780636d568a4c14610333576100fe565b806330283888116100d157806330283888146101e857806330561100146102255780634458f9441461025057806346d8306414610279576100fe565b8063059618531461010357806311eacf5f146101405780631f5a81c2146101825780632899a3b4146101ab575b600080fd5b34801561010f57600080fd5b5061012a60048036038101906101259190611be8565b61045c565b6040516101379190611c4e565b60405180910390f35b34801561014c57600080fd5b5061016760048036038101906101629190611c95565b610615565b60405161017996959493929190611dae565b60405180910390f35b34801561018e57600080fd5b506101a960048036038101906101a49190611f46565b610706565b005b3480156101b757600080fd5b506101d260048036038101906101cd9190611fce565b610871565b6040516101df919061200e565b60405180910390f35b3480156101f457600080fd5b5061020f600480360381019061020a9190612029565b6108a0565b60405161021c9190612114565b60405180910390f35b34801561023157600080fd5b5061023a610aae565b60405161024791906122e9565b60405180910390f35b34801561025c57600080fd5b5061027760048036038101906102729190611c95565b610caf565b005b34801561028557600080fd5b506102a0600480360381019061029b9190612029565b610e18565b6040516102ad9190612114565b60405180910390f35b3480156102c257600080fd5b506102dd60048036038101906102d8919061230b565b610fce565b005b3480156102eb57600080fd5b506102f461101d565b60405161030191906122e9565b60405180910390f35b34801561031657600080fd5b50610331600480360381019061032c9190611c95565b61124e565b005b34801561033f57600080fd5b5061035a60048036038101906103559190611c95565b611403565b005b34801561036857600080fd5b50610383600480360381019061037e9190611c95565b61168b565b005b61039f600480360381019061039a9190612392565b61179b565b005b3480156103ad57600080fd5b506103c860048036038101906103c39190612029565b6117f2565b6040516103d591906123bf565b60405180910390f35b3480156103ea57600080fd5b5061040560048036038101906104009190611fce565b6118c2565b604051610412919061200e565b60405180910390f35b34801561042757600080fd5b50610442600480360381019061043d9190611c95565b6118f1565b6040516104539594939291906123e1565b60405180910390f35b6000600360008154809291906104719061246a565b91905055506040518060c0016040528060035481526020013373ffffffffffffffffffffffffffffffffffffffff16815260200184848080601f016020809104026020016040519081016040528093929190818152602001838380828437600081840152601f19601f82011690508083019250505050505050815260200160008152602001428152602001600115158152506004600060035481526020019081526020016000206000820151816000015560208201518160010160006101000a81548173ffffffffffffffffffffffffffffffffffffffff021916908373ffffffffffffffffffffffffffffffffffffffff160217905550604082015181600201908161057e91906126be565b50606082015181600301556080820151816004015560a08201518160050160006101000a81548160ff0219169083151502179055509050503373ffffffffffffffffffffffffffffffffffffffff167f07f0c4114fbb46ac1022ef02138312f126ea92b348e602862e78a008738137ac6003548585604051610602939291906127bd565b60405180910390a2600354905092915050565b60046020528060005260406000206000915090508060000154908060010160009054906101000a900473ffffffffffffffffffffffffffffffffffffffff1690806002018054610664906124e1565b80601f0160208091040260200160405190810160405280929190818152602001828054610690906124e1565b80156106dd5780601f106106b2576101008083540402835291602001916106dd565b820191906000526020600020905b8154815290600101906020018083116106c057829003601f168201915b5050505050908060030154908060040154908060050160009054906101000a900460ff16905086565b8160035481111561074c576040517f08c379a00000000000000000000000000000000000000000000000000000000081526004016107439061283b565b60405180910390fd5b823373ffffffffffffffffffffffffffffffffffffffff166004600083815260200190815260200160002060010160009054906101000a900473ffffffffffffffffffffffffffffffffffffffff1673ffffffffffffffffffffffffffffffffffffffff16146107f1576040517f08c379a00000000000000000000000000000000000000000000000000000000081526004016107e8906128a7565b60405180910390fd5b60006004600086815260200190815260200160002090508381600201908161081991906126be565b503373ffffffffffffffffffffffffffffffffffffffff167fc1cb2bbcb2b72e53a3ce328208a6bc7343e7d84a462ac745ba6ce2cf83e32d5f86866040516108629291906128c7565b60405180910390a25050505050565b60016020528160005260406000206020528060005260406000206000915091509054906101000a900460ff1681565b6060600080600190505b600354811161096b578373ffffffffffffffffffffffffffffffffffffffff166004600083815260200190815260200160002060010160009054906101000a900473ffffffffffffffffffffffffffffffffffffffff1673ffffffffffffffffffffffffffffffffffffffff1614801561094457506004600082815260200190815260200160002060050160009054906101000a900460ff165b156109585781806109549061246a565b9250505b80806109639061246a565b9150506108aa565b5060008167ffffffffffffffff81111561098857610987611e1b565b5b6040519080825280602002602001820160405280156109b65781602001602082028036833780820191505090505b509050600080600190505b6003548111610aa2578573ffffffffffffffffffffffffffffffffffffffff166004600083815260200190815260200160002060010160009054906101000a900473ffffffffffffffffffffffffffffffffffffffff1673ffffffffffffffffffffffffffffffffffffffff16148015610a5b57506004600082815260200190815260200160002060050160009054906101000a900460ff165b15610a8f5780838381518110610a7457610a736128f7565b5b6020026020010181815250508180610a8b9061246a565b9250505b8080610a9a9061246a565b9150506109c1565b50819350505050919050565b6060600060035467ffffffffffffffff811115610ace57610acd611e1b565b5b604051908082528060200260200182016040528015610b0757816020015b610af4611ac4565b815260200190600190039081610aec5790505b509050600080600190505b6001600354610b219190612926565b811015610ca657600460008281526020019081526020016000206040518060c0016040529081600082015481526020016001820160009054906101000a900473ffffffffffffffffffffffffffffffffffffffff1673ffffffffffffffffffffffffffffffffffffffff1673ffffffffffffffffffffffffffffffffffffffff168152602001600282018054610bb6906124e1565b80601f0160208091040260200160405190810160405280929190818152602001828054610be2906124e1565b8015610c2f5780601f10610c0457610100808354040283529160200191610c2f565b820191906000526020600020905b815481529060010190602001808311610c1257829003601f168201915b5050505050815260200160038201548152602001600482015481526020016005820160009054906101000a900460ff161515151581525050838381518110610c7a57610c796128f7565b5b60200260200101819052508180610c909061246a565b9250508080610c9e9061246a565b915050610b12565b50819250505090565b80600354811115610cf5576040517f08c379a0000000000000000000000000000000000000000000000000000000008152600401610cec9061283b565b60405180910390fd5b813373ffffffffffffffffffffffffffffffffffffffff166004600083815260200190815260200160002060010160009054906101000a900473ffffffffffffffffffffffffffffffffffffffff1673ffffffffffffffffffffffffffffffffffffffff1614610d9a576040517f08c379a0000000000000000000000000000000000000000000000000000000008152600401610d91906128a7565b60405180910390fd5b600460008481526020019081526020016000206000808201600090556001820160006101000a81549073ffffffffffffffffffffffffffffffffffffffff0219169055600282016000610ded9190611b12565b600382016000905560048201600090556005820160006101000a81549060ff02191690555050505050565b6060600080600190505b600354811015610eb75760011515600160008673ffffffffffffffffffffffffffffffffffffffff1673ffffffffffffffffffffffffffffffffffffffff168152602001908152602001600020600083815260200190815260200160002060009054906101000a900460ff16151503610ea4578180610ea09061246a565b9250505b8080610eaf9061246a565b915050610e22565b5060008167ffffffffffffffff811115610ed457610ed3611e1b565b5b604051908082528060200260200182016040528015610f025781602001602082028036833780820191505090505b509050600080600190505b600354811015610fc25760011515600160008873ffffffffffffffffffffffffffffffffffffffff1673ffffffffffffffffffffffffffffffffffffffff168152602001908152602001600020600083815260200190815260200160002060009054906101000a900460ff16151503610faf5780838381518110610f9457610f936128f7565b5b6020026020010181815250508180610fab9061246a565b9250505b8080610fba9061246a565b915050610f0d565b50819350505050919050565b806000803373ffffffffffffffffffffffffffffffffffffffff1673ffffffffffffffffffffffffffffffffffffffff168152602001908152602001600020908161101991906126be565b5050565b6060600060035467ffffffffffffffff81111561103d5761103c611e1b565b5b60405190808252806020026020018201604052801561107657816020015b611063611ac4565b81526020019060019003908161105b5790505b509050600080600190505b60016003546110909190612926565b81101561124557600115156004600083815260200190815260200160002060050160009054906101000a900460ff1615150361123257600460008281526020019081526020016000206040518060c0016040529081600082015481526020016001820160009054906101000a900473ffffffffffffffffffffffffffffffffffffffff1673ffffffffffffffffffffffffffffffffffffffff1673ffffffffffffffffffffffffffffffffffffffff168152602001600282018054611154906124e1565b80601f0160208091040260200160405190810160405280929190818152602001828054611180906124e1565b80156111cd5780601f106111a2576101008083540402835291602001916111cd565b820191906000526020600020905b8154815290600101906020018083116111b057829003601f168201915b5050505050815260200160038201548152602001600482015481526020016005820160009054906101000a900460ff161515151581525050838381518110611218576112176128f7565b5b6020026020010181905250818061122e9061246a565b9250505b808061123d9061246a565b915050611081565b50819250505090565b80600354811115611294576040517f08c379a000000000000000000000000000000000000000000000000000000000815260040161128b9061283b565b60405180910390fd5b813373ffffffffffffffffffffffffffffffffffffffff166004600083815260200190815260200160002060010160009054906101000a900473ffffffffffffffffffffffffffffffffffffffff1673ffffffffffffffffffffffffffffffffffffffff1614611339576040517f08c379a0000000000000000000000000000000000000000000000000000000008152600401611330906128a7565b60405180910390fd5b6004600084815260200190815260200160002060050160009054906101000a900460ff16156004600085815260200190815260200160002060050160006101000a81548160ff0219169083151502179055503373ffffffffffffffffffffffffffffffffffffffff167f6f643d38c8d49f94862283169cb07a52670291545fd45ac036d7155ce8439238846004600087815260200190815260200160002060050160009054906101000a900460ff166040516113f692919061295a565b60405180910390a2505050565b80600354811115611449576040517f08c379a00000000000000000000000000000000000000000000000000000000081526004016114409061283b565b60405180910390fd5b60011515600260003373ffffffffffffffffffffffffffffffffffffffff1673ffffffffffffffffffffffffffffffffffffffff168152602001908152602001600020600084815260200190815260200160002060009054906101000a900460ff161515036114e55760016004600084815260200190815260200160002060030160008282546114d99190612983565b92505081905550611514565b600160046000848152602001908152602001600020600301600082825461150c9190612926565b925050819055505b600260003373ffffffffffffffffffffffffffffffffffffffff1673ffffffffffffffffffffffffffffffffffffffff168152602001908152602001600020600083815260200190815260200160002060009054906101000a900460ff1615600260003373ffffffffffffffffffffffffffffffffffffffff1673ffffffffffffffffffffffffffffffffffffffff168152602001908152602001600020600084815260200190815260200160002060006101000a81548160ff0219169083151502179055503373ffffffffffffffffffffffffffffffffffffffff167fa541bbbd8ba5e5e4be4e6fbe05d75f1b560de1e25e28cd0eddbd067e2550466f83600260003373ffffffffffffffffffffffffffffffffffffffff1673ffffffffffffffffffffffffffffffffffffffff168152602001908152602001600020600086815260200190815260200160002060009054906101000a900460ff1660405161167f92919061295a565b60405180910390a25050565b806003548111156116d1576040517f08c379a00000000000000000000000000000000000000000000000000000000081526004016116c89061283b565b60405180910390fd5b600160003373ffffffffffffffffffffffffffffffffffffffff1673ffffffffffffffffffffffffffffffffffffffff168152602001908152602001600020600083815260200190815260200160002060009054906101000a900460ff1615600160003373ffffffffffffffffffffffffffffffffffffffff1673ffffffffffffffffffffffffffffffffffffffff168152602001908152602001600020600084815260200190815260200160002060006101000a81548160ff0219169083151502179055505050565b600034116117a857600080fd5b8073ffffffffffffffffffffffffffffffffffffffff166108fc349081150290604051600060405180830381858888f193505050501580156117ee573d6000803e3d6000fd5b5050565b60606000808373ffffffffffffffffffffffffffffffffffffffff1673ffffffffffffffffffffffffffffffffffffffff168152602001908152602001600020805461183d906124e1565b80601f0160208091040260200160405190810160405280929190818152602001828054611869906124e1565b80156118b65780601f1061188b576101008083540402835291602001916118b6565b820191906000526020600020905b81548152906001019060200180831161189957829003601f168201915b50505050509050919050565b60026020528160005260406000206020528060005260406000206000915091509054906101000a900460ff1681565b6000806000806060856000600460008381526020019081526020016000206000015403611953576040517f08c379a000000000000000000000000000000000000000000000000000000000815260040161194a90612a03565b60405180910390fd5b6000600460008981526020019081526020016000206040518060c0016040529081600082015481526020016001820160009054906101000a900473ffffffffffffffffffffffffffffffffffffffff1673ffffffffffffffffffffffffffffffffffffffff1673ffffffffffffffffffffffffffffffffffffffff1681526020016002820180546119e3906124e1565b80601f0160208091040260200160405190810160405280929190818152602001828054611a0f906124e1565b8015611a5c5780601f10611a3157610100808354040283529160200191611a5c565b820191906000526020600020905b815481529060010190602001808311611a3f57829003601f168201915b5050505050815260200160038201548152602001600482015481526020016005820160009054906101000a900460ff16151515158152505090508060000151816020015182608001518360600151846040015196509650965096509650505091939590929450565b6040518060c0016040528060008152602001600073ffffffffffffffffffffffffffffffffffffffff1681526020016060815260200160008152602001600081526020016000151581525090565b508054611b1e906124e1565b6000825580601f10611b305750611b4f565b601f016020900490600052602060002090810190611b4e9190611b52565b5b50565b5b80821115611b6b576000816000905550600101611b53565b5090565b6000604051905090565b600080fd5b600080fd5b600080fd5b600080fd5b600080fd5b60008083601f840112611ba857611ba7611b83565b5b8235905067ffffffffffffffff811115611bc557611bc4611b88565b5b602083019150836001820283011115611be157611be0611b8d565b5b9250929050565b60008060208385031215611bff57611bfe611b79565b5b600083013567ffffffffffffffff811115611c1d57611c1c611b7e565b5b611c2985828601611b92565b92509250509250929050565b6000819050919050565b611c4881611c35565b82525050565b6000602082019050611c636000830184611c3f565b92915050565b611c7281611c35565b8114611c7d57600080fd5b50565b600081359050611c8f81611c69565b92915050565b600060208284031215611cab57611caa611b79565b5b6000611cb984828501611c80565b91505092915050565b600073ffffffffffffffffffffffffffffffffffffffff82169050919050565b6000611ced82611cc2565b9050919050565b611cfd81611ce2565b82525050565b600081519050919050565b600082825260208201905092915050565b60005b83811015611d3d578082015181840152602081019050611d22565b60008484015250505050565b6000601f19601f8301169050919050565b6000611d6582611d03565b611d6f8185611d0e565b9350611d7f818560208601611d1f565b611d8881611d49565b840191505092915050565b60008115159050919050565b611da881611d93565b82525050565b600060c082019050611dc36000830189611c3f565b611dd06020830188611cf4565b8181036040830152611de28187611d5a565b9050611df16060830186611c3f565b611dfe6080830185611c3f565b611e0b60a0830184611d9f565b979650505050505050565b600080fd5b7f4e487b7100000000000000000000000000000000000000000000000000000000600052604160045260246000fd5b611e5382611d49565b810181811067ffffffffffffffff82111715611e7257611e71611e1b565b5b80604052505050565b6000611e85611b6f565b9050611e918282611e4a565b919050565b600067ffffffffffffffff821115611eb157611eb0611e1b565b5b611eba82611d49565b9050602081019050919050565b82818337600083830152505050565b6000611ee9611ee484611e96565b611e7b565b905082815260208101848484011115611f0557611f04611e16565b5b611f10848285611ec7565b509392505050565b600082601f830112611f2d57611f2c611b83565b5b8135611f3d848260208601611ed6565b91505092915050565b60008060408385031215611f5d57611f5c611b79565b5b6000611f6b85828601611c80565b925050602083013567ffffffffffffffff811115611f8c57611f8b611b7e565b5b611f9885828601611f18565b9150509250929050565b611fab81611ce2565b8114611fb657600080fd5b50565b600081359050611fc881611fa2565b92915050565b60008060408385031215611fe557611fe4611b79565b5b6000611ff385828601611fb9565b925050602061200485828601611c80565b9150509250929050565b60006020820190506120236000830184611d9f565b92915050565b60006020828403121561203f5761203e611b79565b5b600061204d84828501611fb9565b91505092915050565b600081519050919050565b600082825260208201905092915050565b6000819050602082019050919050565b61208b81611c35565b82525050565b600061209d8383612082565b60208301905092915050565b6000602082019050919050565b60006120c182612056565b6120cb8185612061565b93506120d683612072565b8060005b838110156121075781516120ee8882612091565b97506120f9836120a9565b9250506001810190506120da565b5085935050505092915050565b6000602082019050818103600083015261212e81846120b6565b905092915050565b600081519050919050565b600082825260208201905092915050565b6000819050602082019050919050565b61216b81611ce2565b82525050565b600082825260208201905092915050565b600061218d82611d03565b6121978185612171565b93506121a7818560208601611d1f565b6121b081611d49565b840191505092915050565b6121c481611d93565b82525050565b600060c0830160008301516121e26000860182612082565b5060208301516121f56020860182612162565b506040830151848203604086015261220d8282612182565b91505060608301516122226060860182612082565b5060808301516122356080860182612082565b5060a083015161224860a08601826121bb565b508091505092915050565b600061225f83836121ca565b905092915050565b6000602082019050919050565b600061227f82612136565b6122898185612141565b93508360208202850161229b85612152565b8060005b858110156122d757848403895281516122b88582612253565b94506122c383612267565b925060208a0199505060018101905061229f565b50829750879550505050505092915050565b600060208201905081810360008301526123038184612274565b905092915050565b60006020828403121561232157612320611b79565b5b600082013567ffffffffffffffff81111561233f5761233e611b7e565b5b61234b84828501611f18565b91505092915050565b600061235f82611cc2565b9050919050565b61236f81612354565b811461237a57600080fd5b50565b60008135905061238c81612366565b92915050565b6000602082840312156123a8576123a7611b79565b5b60006123b68482850161237d565b91505092915050565b600060208201905081810360008301526123d98184611d5a565b905092915050565b600060a0820190506123f66000830188611c3f565b6124036020830187611cf4565b6124106040830186611c3f565b61241d6060830185611c3f565b818103608083015261242f8184611d5a565b90509695505050505050565b7f4e487b7100000000000000000000000000000000000000000000000000000000600052601160045260246000fd5b600061247582611c35565b91507fffffffffffffffffffffffffffffffffffffffffffffffffffffffffffffffff82036124a7576124a661243b565b5b600182019050919050565b7f4e487b7100000000000000000000000000000000000000000000000000000000600052602260045260246000fd5b600060028204905060018216806124f957607f821691505b60208210810361250c5761250b6124b2565b5b50919050565b60008190508160005260206000209050919050565b60006020601f8301049050919050565b600082821b905092915050565b6000600883026125747fffffffffffffffffffffffffffffffffffffffffffffffffffffffffffffffff82612537565b61257e8683612537565b95508019841693508086168417925050509392505050565b6000819050919050565b60006125bb6125b66125b184611c35565b612596565b611c35565b9050919050565b6000819050919050565b6125d5836125a0565b6125e96125e1826125c2565b848454612544565b825550505050565b600090565b6125fe6125f1565b6126098184846125cc565b505050565b5b8181101561262d576126226000826125f6565b60018101905061260f565b5050565b601f8211156126725761264381612512565b61264c84612527565b8101602085101561265b578190505b61266f61266785612527565b83018261260e565b50505b505050565b600082821c905092915050565b600061269560001984600802612677565b1980831691505092915050565b60006126ae8383612684565b9150826002028217905092915050565b6126c782611d03565b67ffffffffffffffff8111156126e0576126df611e1b565b5b6126ea82546124e1565b6126f5828285612631565b600060209050601f8311600181146127285760008415612716578287015190505b61272085826126a2565b865550612788565b601f19841661273686612512565b60005b8281101561275e57848901518255600182019150602085019450602081019050612739565b8683101561277b5784890151612777601f891682612684565b8355505b6001600288020188555050505b505050505050565b600061279c8385611d0e565b93506127a9838584611ec7565b6127b283611d49565b840190509392505050565b60006040820190506127d26000830186611c3f565b81810360208301526127e5818486612790565b9050949350505050565b7f426c6f6720506f737420646f65736e2774206578697374000000000000000000600082015250565b6000612825601783611d0e565b9150612830826127ef565b602082019050919050565b6000602082019050818103600083015261285481612818565b9050919050565b7f596f7520646f206e6f74206f776e2074686520626c6f6720706f737400000000600082015250565b6000612891601c83611d0e565b915061289c8261285b565b602082019050919050565b600060208201905081810360008301526128c081612884565b9050919050565b60006040820190506128dc6000830185611c3f565b81810360208301526128ee8184611d5a565b90509392505050565b7f4e487b7100000000000000000000000000000000000000000000000000000000600052603260045260246000fd5b600061293182611c35565b915061293c83611c35565b92508282019050808211156129545761295361243b565b5b92915050565b600060408201905061296f6000830185611c3f565b61297c6020830184611d9f565b9392505050565b600061298e82611c35565b915061299983611c35565b92508282039050818111156129b1576129b061243b565b5b92915050565b7f5468697320626c6f6720706f737420686173206265656e2064656c657465642e600082015250565b60006129ed602083611d0e565b91506129f8826129b7565b602082019050919050565b60006020820190508181036000830152612a1c816129e0565b905091905056fea2646970667358221220dd0db11f77e0d20c81f1ad64a5c25ef59640e4f4cf4c2d55e6c6fc45cae0854064736f6c63430008120033",
  "linkReferences": {},
  "deployedLinkReferences": {}
}