{
  "_format": "hh-sol-artifact-1",
  "contractName": "BlockBlog",
  "sourceName": "contracts/BlockBlog.sol",
  "abi": [
    {
      "inputs": [],
      "stateMutability": "nonpayable",
      "type": "constructor"
    },
    {
      "anonymous": false,
      "inputs": [
        {
          "indexed": false,
          "internalType": "uint256",
          "name": "id",
          "type": "uint256"
        },
        {
          "indexed": true,
          "internalType": "address",
          "name": "owner",
          "type": "address"
        },
        {
          "indexed": false,
          "internalType": "string",
          "name": "uri",
          "type": "string"
        }
      ],
      "name": "CreateBlogPost",
      "type": "event"
    },
    {
      "anonymous": false,
      "inputs": [
        {
          "indexed": false,
          "internalType": "uint256",
          "name": "id",
          "type": "uint256"
        }
      ],
      "name": "DeletBlogPost",
      "type": "event"
    },
    {
      "anonymous": false,
      "inputs": [
        {
          "indexed": false,
          "internalType": "uint256",
          "name": "id",
          "type": "uint256"
        },
        {
          "indexed": true,
          "internalType": "address",
          "name": "owner",
          "type": "address"
        },
        {
          "indexed": false,
          "internalType": "string",
          "name": "uri",
          "type": "string"
        }
      ],
      "name": "EditBlogPost",
      "type": "event"
    },
    {
      "anonymous": false,
      "inputs": [
        {
          "indexed": false,
          "internalType": "uint256",
          "name": "id",
          "type": "uint256"
        },
        {
          "indexed": true,
          "internalType": "address",
          "name": "likeer",
          "type": "address"
        },
        {
          "indexed": false,
          "internalType": "bool",
          "name": "isLiked",
          "type": "bool"
        }
      ],
      "name": "LikeBlogPost",
      "type": "event"
    },
    {
      "anonymous": false,
      "inputs": [
        {
          "indexed": false,
          "internalType": "uint256",
          "name": "id",
          "type": "uint256"
        },
        {
          "indexed": true,
          "internalType": "address",
          "name": "owner",
          "type": "address"
        },
        {
          "indexed": false,
          "internalType": "bool",
          "name": "isActive",
          "type": "bool"
        }
      ],
      "name": "ListingStatusUpdated",
      "type": "event"
    },
    {
      "inputs": [
        {
          "internalType": "string",
          "name": "_postUri",
          "type": "string"
        }
      ],
      "name": "createBlogPost",
      "outputs": [
        {
          "internalType": "uint256",
          "name": "",
          "type": "uint256"
        }
      ],
      "stateMutability": "nonpayable",
      "type": "function"
    },
    {
      "inputs": [
        {
          "internalType": "uint256",
          "name": "_postId",
          "type": "uint256"
        }
      ],
      "name": "deleteBlogPost",
      "outputs": [],
      "stateMutability": "nonpayable",
      "type": "function"
    },
    {
      "inputs": [
        {
          "internalType": "uint256",
          "name": "_postId",
          "type": "uint256"
        },
        {
          "internalType": "string",
          "name": "_postUri",
          "type": "string"
        }
      ],
      "name": "editBlogPost",
      "outputs": [],
      "stateMutability": "nonpayable",
      "type": "function"
    },
    {
      "inputs": [],
      "name": "getAllActivePosts",
      "outputs": [
        {
          "components": [
            {
              "internalType": "uint256",
              "name": "postId",
              "type": "uint256"
            },
            {
              "internalType": "address",
              "name": "owner",
              "type": "address"
            },
            {
              "internalType": "string",
              "name": "post_uri",
              "type": "string"
            },
            {
              "internalType": "uint256",
              "name": "likes",
              "type": "uint256"
            },
            {
              "internalType": "uint256",
              "name": "createAt",
              "type": "uint256"
            },
            {
              "internalType": "bool",
              "name": "isActive",
              "type": "bool"
            }
          ],
          "internalType": "struct BlockBlog.BlogPost[]",
          "name": "",
          "type": "tuple[]"
        }
      ],
      "stateMutability": "view",
      "type": "function"
    },
    {
      "inputs": [
        {
          "internalType": "uint256",
          "name": "_postId",
          "type": "uint256"
        }
      ],
      "name": "getBlogPost",
      "outputs": [
        {
          "internalType": "uint256",
          "name": "",
          "type": "uint256"
        },
        {
          "internalType": "address",
          "name": "",
          "type": "address"
        },
        {
          "internalType": "uint256",
          "name": "",
          "type": "uint256"
        },
        {
          "internalType": "uint256",
          "name": "",
          "type": "uint256"
        },
        {
          "internalType": "string",
          "name": "",
          "type": "string"
        }
      ],
      "stateMutability": "view",
      "type": "function"
    },
    {
      "inputs": [
        {
          "internalType": "address",
          "name": "_reader",
          "type": "address"
        }
      ],
      "name": "getReadingList",
      "outputs": [
        {
          "internalType": "uint256[]",
          "name": "",
          "type": "uint256[]"
        }
      ],
      "stateMutability": "view",
      "type": "function"
    },
    {
      "inputs": [
        {
          "internalType": "address",
          "name": "_userAddress",
          "type": "address"
        }
      ],
      "name": "getUserPostList",
      "outputs": [
        {
          "internalType": "uint256[]",
          "name": "",
          "type": "uint256[]"
        }
      ],
      "stateMutability": "view",
      "type": "function"
    },
    {
      "inputs": [
        {
          "internalType": "uint256",
          "name": "",
          "type": "uint256"
        }
      ],
      "name": "idToBlogPosts",
      "outputs": [
        {
          "internalType": "uint256",
          "name": "postId",
          "type": "uint256"
        },
        {
          "internalType": "address",
          "name": "owner",
          "type": "address"
        },
        {
          "internalType": "string",
          "name": "post_uri",
          "type": "string"
        },
        {
          "internalType": "uint256",
          "name": "likes",
          "type": "uint256"
        },
        {
          "internalType": "uint256",
          "name": "createAt",
          "type": "uint256"
        },
        {
          "internalType": "bool",
          "name": "isActive",
          "type": "bool"
        }
      ],
      "stateMutability": "view",
      "type": "function"
    },
    {
      "inputs": [
        {
          "internalType": "address",
          "name": "",
          "type": "address"
        },
        {
          "internalType": "uint256",
          "name": "",
          "type": "uint256"
        }
      ],
      "name": "isFavorite",
      "outputs": [
        {
          "internalType": "bool",
          "name": "",
          "type": "bool"
        }
      ],
      "stateMutability": "view",
      "type": "function"
    },
    {
      "inputs": [
        {
          "internalType": "uint256",
          "name": "_postId",
          "type": "uint256"
        }
      ],
      "name": "likeBlogPost",
      "outputs": [],
      "stateMutability": "nonpayable",
      "type": "function"
    },
    {
      "inputs": [
        {
          "internalType": "address",
          "name": "",
          "type": "address"
        },
        {
          "internalType": "uint256",
          "name": "",
          "type": "uint256"
        }
      ],
      "name": "onReadingList",
      "outputs": [
        {
          "internalType": "bool",
          "name": "",
          "type": "bool"
        }
      ],
      "stateMutability": "view",
      "type": "function"
    },
    {
      "inputs": [
        {
          "internalType": "uint256",
          "name": "_postId",
          "type": "uint256"
        }
      ],
      "name": "updateListingStatus",
      "outputs": [],
      "stateMutability": "nonpayable",
      "type": "function"
    },
    {
      "inputs": [
        {
          "internalType": "uint256",
          "name": "_postId",
          "type": "uint256"
        }
      ],
      "name": "updateReadingList",
      "outputs": [],
      "stateMutability": "nonpayable",
      "type": "function"
    }
  ],
  "bytecode": "0x608060405234801561001057600080fd5b50612487806100206000396000f3fe608060405234801561001057600080fd5b50600436106100cf5760003560e01c806346d830641161008c5780636d568a4c116100665780636d568a4c1461023b578063d1cdcac214610257578063ef2cbfeb14610273578063f2202158146102a3576100cf565b806346d83064146101d15780635d2993491461020157806369eb49821461021f576100cf565b806305961853146100d457806311eacf5f146101045780631f5a81c2146101395780632899a3b41461015557806330283888146101855780634458f944146101b5575b600080fd5b6100ee60048036038101906100e991906116ec565b6102d7565b6040516100fb9190611752565b60405180910390f35b61011e60048036038101906101199190611799565b610490565b604051610130969594939291906118b2565b60405180910390f35b610153600480360381019061014e9190611a4a565b610581565b005b61016f600480360381019061016a9190611ad2565b6106ec565b60405161017c9190611b12565b60405180910390f35b61019f600480360381019061019a9190611b2d565b61071b565b6040516101ac9190611c18565b60405180910390f35b6101cf60048036038101906101ca9190611799565b610929565b005b6101eb60048036038101906101e69190611b2d565b610a92565b6040516101f89190611c18565b60405180910390f35b610209610c48565b6040516102169190611ded565b60405180910390f35b61023960048036038101906102349190611799565b610e79565b005b61025560048036038101906102509190611799565b61102e565b005b610271600480360381019061026c9190611799565b6112b6565b005b61028d60048036038101906102889190611ad2565b6113c6565b60405161029a9190611b12565b60405180910390f35b6102bd60048036038101906102b89190611799565b6113f5565b6040516102ce959493929190611e0f565b60405180910390f35b6000600460008154809291906102ec90611e98565b91905055506040518060c0016040528060045481526020013373ffffffffffffffffffffffffffffffffffffffff16815260200184848080601f016020809104026020016040519081016040528093929190818152602001838380828437600081840152601f19601f82011690508083019250505050505050815260200160008152602001428152602001600115158152506005600060045481526020019081526020016000206000820151816000015560208201518160010160006101000a81548173ffffffffffffffffffffffffffffffffffffffff021916908373ffffffffffffffffffffffffffffffffffffffff16021790555060408201518160020190816103f991906120ec565b50606082015181600301556080820151816004015560a08201518160050160006101000a81548160ff0219169083151502179055509050503373ffffffffffffffffffffffffffffffffffffffff167f07f0c4114fbb46ac1022ef02138312f126ea92b348e602862e78a008738137ac600454858560405161047d939291906121eb565b60405180910390a2600454905092915050565b60056020528060005260406000206000915090508060000154908060010160009054906101000a900473ffffffffffffffffffffffffffffffffffffffff16908060020180546104df90611f0f565b80601f016020809104026020016040519081016040528092919081815260200182805461050b90611f0f565b80156105585780601f1061052d57610100808354040283529160200191610558565b820191906000526020600020905b81548152906001019060200180831161053b57829003601f168201915b5050505050908060030154908060040154908060050160009054906101000a900460ff16905086565b816004548111156105c7576040517f08c379a00000000000000000000000000000000000000000000000000000000081526004016105be90612269565b60405180910390fd5b823373ffffffffffffffffffffffffffffffffffffffff166005600083815260200190815260200160002060010160009054906101000a900473ffffffffffffffffffffffffffffffffffffffff1673ffffffffffffffffffffffffffffffffffffffff161461066c576040517f08c379a0000000000000000000000000000000000000000000000000000000008152600401610663906122d5565b60405180910390fd5b60006005600086815260200190815260200160002090508381600201908161069491906120ec565b503373ffffffffffffffffffffffffffffffffffffffff167fc1cb2bbcb2b72e53a3ce328208a6bc7343e7d84a462ac745ba6ce2cf83e32d5f86866040516106dd9291906122f5565b60405180910390a25050505050565b60026020528160005260406000206020528060005260406000206000915091509054906101000a900460ff1681565b6060600080600190505b60045481116107e6578373ffffffffffffffffffffffffffffffffffffffff166005600083815260200190815260200160002060010160009054906101000a900473ffffffffffffffffffffffffffffffffffffffff1673ffffffffffffffffffffffffffffffffffffffff161480156107bf57506005600082815260200190815260200160002060050160009054906101000a900460ff165b156107d35781806107cf90611e98565b9250505b80806107de90611e98565b915050610725565b5060008167ffffffffffffffff8111156108035761080261191f565b5b6040519080825280602002602001820160405280156108315781602001602082028036833780820191505090505b509050600080600190505b600454811161091d578573ffffffffffffffffffffffffffffffffffffffff166005600083815260200190815260200160002060010160009054906101000a900473ffffffffffffffffffffffffffffffffffffffff1673ffffffffffffffffffffffffffffffffffffffff161480156108d657506005600082815260200190815260200160002060050160009054906101000a900460ff165b1561090a57808383815181106108ef576108ee612325565b5b602002602001018181525050818061090690611e98565b9250505b808061091590611e98565b91505061083c565b50819350505050919050565b8060045481111561096f576040517f08c379a000000000000000000000000000000000000000000000000000000000815260040161096690612269565b60405180910390fd5b813373ffffffffffffffffffffffffffffffffffffffff166005600083815260200190815260200160002060010160009054906101000a900473ffffffffffffffffffffffffffffffffffffffff1673ffffffffffffffffffffffffffffffffffffffff1614610a14576040517f08c379a0000000000000000000000000000000000000000000000000000000008152600401610a0b906122d5565b60405180910390fd5b600560008481526020019081526020016000206000808201600090556001820160006101000a81549073ffffffffffffffffffffffffffffffffffffffff0219169055600282016000610a6791906115c8565b600382016000905560048201600090556005820160006101000a81549060ff02191690555050505050565b6060600080600190505b600454811015610b315760011515600260008673ffffffffffffffffffffffffffffffffffffffff1673ffffffffffffffffffffffffffffffffffffffff168152602001908152602001600020600083815260200190815260200160002060009054906101000a900460ff16151503610b1e578180610b1a90611e98565b9250505b8080610b2990611e98565b915050610a9c565b5060008167ffffffffffffffff811115610b4e57610b4d61191f565b5b604051908082528060200260200182016040528015610b7c5781602001602082028036833780820191505090505b509050600080600190505b600454811015610c3c5760011515600260008873ffffffffffffffffffffffffffffffffffffffff1673ffffffffffffffffffffffffffffffffffffffff168152602001908152602001600020600083815260200190815260200160002060009054906101000a900460ff16151503610c295780838381518110610c0e57610c0d612325565b5b6020026020010181815250508180610c2590611e98565b9250505b8080610c3490611e98565b915050610b87565b50819350505050919050565b6060600060045467ffffffffffffffff811115610c6857610c6761191f565b5b604051908082528060200260200182016040528015610ca157816020015b610c8e611608565b815260200190600190039081610c865790505b509050600080600190505b6001600454610cbb9190612354565b811015610e7057600115156005600083815260200190815260200160002060050160009054906101000a900460ff16151503610e5d57600560008281526020019081526020016000206040518060c0016040529081600082015481526020016001820160009054906101000a900473ffffffffffffffffffffffffffffffffffffffff1673ffffffffffffffffffffffffffffffffffffffff1673ffffffffffffffffffffffffffffffffffffffff168152602001600282018054610d7f90611f0f565b80601f0160208091040260200160405190810160405280929190818152602001828054610dab90611f0f565b8015610df85780601f10610dcd57610100808354040283529160200191610df8565b820191906000526020600020905b815481529060010190602001808311610ddb57829003601f168201915b5050505050815260200160038201548152602001600482015481526020016005820160009054906101000a900460ff161515151581525050838381518110610e4357610e42612325565b5b60200260200101819052508180610e5990611e98565b9250505b8080610e6890611e98565b915050610cac565b50819250505090565b80600454811115610ebf576040517f08c379a0000000000000000000000000000000000000000000000000000000008152600401610eb690612269565b60405180910390fd5b813373ffffffffffffffffffffffffffffffffffffffff166005600083815260200190815260200160002060010160009054906101000a900473ffffffffffffffffffffffffffffffffffffffff1673ffffffffffffffffffffffffffffffffffffffff1614610f64576040517f08c379a0000000000000000000000000000000000000000000000000000000008152600401610f5b906122d5565b60405180910390fd5b6005600084815260200190815260200160002060050160009054906101000a900460ff16156005600085815260200190815260200160002060050160006101000a81548160ff0219169083151502179055503373ffffffffffffffffffffffffffffffffffffffff167f6f643d38c8d49f94862283169cb07a52670291545fd45ac036d7155ce8439238846005600087815260200190815260200160002060050160009054906101000a900460ff16604051611021929190612388565b60405180910390a2505050565b80600454811115611074576040517f08c379a000000000000000000000000000000000000000000000000000000000815260040161106b90612269565b60405180910390fd5b60011515600360003373ffffffffffffffffffffffffffffffffffffffff1673ffffffffffffffffffffffffffffffffffffffff168152602001908152602001600020600084815260200190815260200160002060009054906101000a900460ff1615150361111057600160056000848152602001908152602001600020600301600082825461110491906123b1565b9250508190555061113f565b60016005600084815260200190815260200160002060030160008282546111379190612354565b925050819055505b600360003373ffffffffffffffffffffffffffffffffffffffff1673ffffffffffffffffffffffffffffffffffffffff168152602001908152602001600020600083815260200190815260200160002060009054906101000a900460ff1615600360003373ffffffffffffffffffffffffffffffffffffffff1673ffffffffffffffffffffffffffffffffffffffff168152602001908152602001600020600084815260200190815260200160002060006101000a81548160ff0219169083151502179055503373ffffffffffffffffffffffffffffffffffffffff167fa541bbbd8ba5e5e4be4e6fbe05d75f1b560de1e25e28cd0eddbd067e2550466f83600360003373ffffffffffffffffffffffffffffffffffffffff1673ffffffffffffffffffffffffffffffffffffffff168152602001908152602001600020600086815260200190815260200160002060009054906101000a900460ff166040516112aa929190612388565b60405180910390a25050565b806004548111156112fc576040517f08c379a00000000000000000000000000000000000000000000000000000000081526004016112f390612269565b60405180910390fd5b600260003373ffffffffffffffffffffffffffffffffffffffff1673ffffffffffffffffffffffffffffffffffffffff168152602001908152602001600020600083815260200190815260200160002060009054906101000a900460ff1615600260003373ffffffffffffffffffffffffffffffffffffffff1673ffffffffffffffffffffffffffffffffffffffff168152602001908152602001600020600084815260200190815260200160002060006101000a81548160ff0219169083151502179055505050565b60036020528160005260406000206020528060005260406000206000915091509054906101000a900460ff1681565b6000806000806060856000600560008381526020019081526020016000206000015403611457576040517f08c379a000000000000000000000000000000000000000000000000000000000815260040161144e90612431565b60405180910390fd5b6000600560008981526020019081526020016000206040518060c0016040529081600082015481526020016001820160009054906101000a900473ffffffffffffffffffffffffffffffffffffffff1673ffffffffffffffffffffffffffffffffffffffff1673ffffffffffffffffffffffffffffffffffffffff1681526020016002820180546114e790611f0f565b80601f016020809104026020016040519081016040528092919081815260200182805461151390611f0f565b80156115605780601f1061153557610100808354040283529160200191611560565b820191906000526020600020905b81548152906001019060200180831161154357829003601f168201915b5050505050815260200160038201548152602001600482015481526020016005820160009054906101000a900460ff16151515158152505090508060000151816020015182608001518360600151846040015196509650965096509650505091939590929450565b5080546115d490611f0f565b6000825580601f106115e65750611605565b601f0160209004906000526020600020908101906116049190611656565b5b50565b6040518060c0016040528060008152602001600073ffffffffffffffffffffffffffffffffffffffff1681526020016060815260200160008152602001600081526020016000151581525090565b5b8082111561166f576000816000905550600101611657565b5090565b6000604051905090565b600080fd5b600080fd5b600080fd5b600080fd5b600080fd5b60008083601f8401126116ac576116ab611687565b5b8235905067ffffffffffffffff8111156116c9576116c861168c565b5b6020830191508360018202830111156116e5576116e4611691565b5b9250929050565b600080602083850312156117035761170261167d565b5b600083013567ffffffffffffffff81111561172157611720611682565b5b61172d85828601611696565b92509250509250929050565b6000819050919050565b61174c81611739565b82525050565b60006020820190506117676000830184611743565b92915050565b61177681611739565b811461178157600080fd5b50565b6000813590506117938161176d565b92915050565b6000602082840312156117af576117ae61167d565b5b60006117bd84828501611784565b91505092915050565b600073ffffffffffffffffffffffffffffffffffffffff82169050919050565b60006117f1826117c6565b9050919050565b611801816117e6565b82525050565b600081519050919050565b600082825260208201905092915050565b60005b83811015611841578082015181840152602081019050611826565b60008484015250505050565b6000601f19601f8301169050919050565b600061186982611807565b6118738185611812565b9350611883818560208601611823565b61188c8161184d565b840191505092915050565b60008115159050919050565b6118ac81611897565b82525050565b600060c0820190506118c76000830189611743565b6118d460208301886117f8565b81810360408301526118e6818761185e565b90506118f56060830186611743565b6119026080830185611743565b61190f60a08301846118a3565b979650505050505050565b600080fd5b7f4e487b7100000000000000000000000000000000000000000000000000000000600052604160045260246000fd5b6119578261184d565b810181811067ffffffffffffffff821117156119765761197561191f565b5b80604052505050565b6000611989611673565b9050611995828261194e565b919050565b600067ffffffffffffffff8211156119b5576119b461191f565b5b6119be8261184d565b9050602081019050919050565b82818337600083830152505050565b60006119ed6119e88461199a565b61197f565b905082815260208101848484011115611a0957611a0861191a565b5b611a148482856119cb565b509392505050565b600082601f830112611a3157611a30611687565b5b8135611a418482602086016119da565b91505092915050565b60008060408385031215611a6157611a6061167d565b5b6000611a6f85828601611784565b925050602083013567ffffffffffffffff811115611a9057611a8f611682565b5b611a9c85828601611a1c565b9150509250929050565b611aaf816117e6565b8114611aba57600080fd5b50565b600081359050611acc81611aa6565b92915050565b60008060408385031215611ae957611ae861167d565b5b6000611af785828601611abd565b9250506020611b0885828601611784565b9150509250929050565b6000602082019050611b2760008301846118a3565b92915050565b600060208284031215611b4357611b4261167d565b5b6000611b5184828501611abd565b91505092915050565b600081519050919050565b600082825260208201905092915050565b6000819050602082019050919050565b611b8f81611739565b82525050565b6000611ba18383611b86565b60208301905092915050565b6000602082019050919050565b6000611bc582611b5a565b611bcf8185611b65565b9350611bda83611b76565b8060005b83811015611c0b578151611bf28882611b95565b9750611bfd83611bad565b925050600181019050611bde565b5085935050505092915050565b60006020820190508181036000830152611c328184611bba565b905092915050565b600081519050919050565b600082825260208201905092915050565b6000819050602082019050919050565b611c6f816117e6565b82525050565b600082825260208201905092915050565b6000611c9182611807565b611c9b8185611c75565b9350611cab818560208601611823565b611cb48161184d565b840191505092915050565b611cc881611897565b82525050565b600060c083016000830151611ce66000860182611b86565b506020830151611cf96020860182611c66565b5060408301518482036040860152611d118282611c86565b9150506060830151611d266060860182611b86565b506080830151611d396080860182611b86565b5060a0830151611d4c60a0860182611cbf565b508091505092915050565b6000611d638383611cce565b905092915050565b6000602082019050919050565b6000611d8382611c3a565b611d8d8185611c45565b935083602082028501611d9f85611c56565b8060005b85811015611ddb5784840389528151611dbc8582611d57565b9450611dc783611d6b565b925060208a01995050600181019050611da3565b50829750879550505050505092915050565b60006020820190508181036000830152611e078184611d78565b905092915050565b600060a082019050611e246000830188611743565b611e3160208301876117f8565b611e3e6040830186611743565b611e4b6060830185611743565b8181036080830152611e5d818461185e565b90509695505050505050565b7f4e487b7100000000000000000000000000000000000000000000000000000000600052601160045260246000fd5b6000611ea382611739565b91507fffffffffffffffffffffffffffffffffffffffffffffffffffffffffffffffff8203611ed557611ed4611e69565b5b600182019050919050565b7f4e487b7100000000000000000000000000000000000000000000000000000000600052602260045260246000fd5b60006002820490506001821680611f2757607f821691505b602082108103611f3a57611f39611ee0565b5b50919050565b60008190508160005260206000209050919050565b60006020601f8301049050919050565b600082821b905092915050565b600060088302611fa27fffffffffffffffffffffffffffffffffffffffffffffffffffffffffffffffff82611f65565b611fac8683611f65565b95508019841693508086168417925050509392505050565b6000819050919050565b6000611fe9611fe4611fdf84611739565b611fc4565b611739565b9050919050565b6000819050919050565b61200383611fce565b61201761200f82611ff0565b848454611f72565b825550505050565b600090565b61202c61201f565b612037818484611ffa565b505050565b5b8181101561205b57612050600082612024565b60018101905061203d565b5050565b601f8211156120a05761207181611f40565b61207a84611f55565b81016020851015612089578190505b61209d61209585611f55565b83018261203c565b50505b505050565b600082821c905092915050565b60006120c3600019846008026120a5565b1980831691505092915050565b60006120dc83836120b2565b9150826002028217905092915050565b6120f582611807565b67ffffffffffffffff81111561210e5761210d61191f565b5b6121188254611f0f565b61212382828561205f565b600060209050601f8311600181146121565760008415612144578287015190505b61214e85826120d0565b8655506121b6565b601f19841661216486611f40565b60005b8281101561218c57848901518255600182019150602085019450602081019050612167565b868310156121a957848901516121a5601f8916826120b2565b8355505b6001600288020188555050505b505050505050565b60006121ca8385611812565b93506121d78385846119cb565b6121e08361184d565b840190509392505050565b60006040820190506122006000830186611743565b81810360208301526122138184866121be565b9050949350505050565b7f426c6f6720506f737420646f65736e2774206578697374000000000000000000600082015250565b6000612253601783611812565b915061225e8261221d565b602082019050919050565b6000602082019050818103600083015261228281612246565b9050919050565b7f596f7520646f206e6f74206f776e2074686520626c6f6720706f737400000000600082015250565b60006122bf601c83611812565b91506122ca82612289565b602082019050919050565b600060208201905081810360008301526122ee816122b2565b9050919050565b600060408201905061230a6000830185611743565b818103602083015261231c818461185e565b90509392505050565b7f4e487b7100000000000000000000000000000000000000000000000000000000600052603260045260246000fd5b600061235f82611739565b915061236a83611739565b925082820190508082111561238257612381611e69565b5b92915050565b600060408201905061239d6000830185611743565b6123aa60208301846118a3565b9392505050565b60006123bc82611739565b91506123c783611739565b92508282039050818111156123df576123de611e69565b5b92915050565b7f5468697320626c6f6720706f737420686173206265656e2064656c657465642e600082015250565b600061241b602083611812565b9150612426826123e5565b602082019050919050565b6000602082019050818103600083015261244a8161240e565b905091905056fea26469706673582212208d92fc0f4f8fdcfc3f0e11dc49be68e8fea27143df74419b9d17932ace1f207b64736f6c63430008120033",
  "linkReferences": {},
  "deployedLinkReferences": {}
}